{
  "contractName": "DIDRegistry",
  "abi": [
    {
      "anonymous": false,
      "inputs": [
        {
          "indexed": true,
          "name": "_did",
          "type": "bytes32"
        },
        {
          "indexed": true,
          "name": "_owner",
          "type": "address"
        },
        {
          "indexed": false,
          "name": "_value",
          "type": "string"
        },
        {
          "indexed": false,
          "name": "_blockNumberUpdated",
          "type": "uint256"
        }
      ],
      "name": "DIDRegistered",
      "type": "event"
    },
    {
      "constant": false,
      "inputs": [],
      "name": "initialize",
      "outputs": [],
      "payable": false,
      "stateMutability": "nonpayable",
      "type": "function"
    },
    {
      "constant": false,
      "inputs": [
        {
          "name": "_did",
          "type": "bytes32"
        },
        {
          "name": "_value",
          "type": "string"
        }
      ],
      "name": "registerDID",
      "outputs": [
        {
          "name": "size",
          "type": "uint256"
        }
      ],
      "payable": false,
      "stateMutability": "nonpayable",
      "type": "function"
    },
    {
      "constant": true,
      "inputs": [
        {
          "name": "_did",
          "type": "bytes32"
        }
      ],
      "name": "getBlockNumberUpdated",
      "outputs": [
        {
          "name": "blockNumberUpdated",
          "type": "uint256"
        }
      ],
      "payable": false,
      "stateMutability": "view",
      "type": "function"
    }
  ],
  "bytecode": "0x608060405234801561001057600080fd5b50610716806100206000396000f3fe608060405234801561001057600080fd5b506004361061005e576000357c010000000000000000000000000000000000000000000000000000000090048063331daa99146100635780638129fc1c1461013c578063bbc1dede14610146575b600080fd5b6101266004803603604081101561007957600080fd5b8101908080359060200190929190803590602001906401000000008111156100a057600080fd5b8201836020820111156100b257600080fd5b803590602001918460018302840111640100000000831117156100d457600080fd5b91908080601f016020809104026020016040519081016040528093929190818152602001838380828437600081840152601f19601f820116905080830192505050505050509192919290505050610188565b6040518082815260200191505060405180910390f35b61014461055c565b005b6101726004803603602081101561015c57600080fd5b810190808035906020019092919050505061065b565b6040518082815260200191505060405180910390f35b60008073ffffffffffffffffffffffffffffffffffffffff166033600085815260200190815260200160002060000160009054906101000a900473ffffffffffffffffffffffffffffffffffffffff1673ffffffffffffffffffffffffffffffffffffffff16148061025b57503373ffffffffffffffffffffffffffffffffffffffff166033600085815260200190815260200160002060000160009054906101000a900473ffffffffffffffffffffffffffffffffffffffff1673ffffffffffffffffffffffffffffffffffffffff16145b6102b0576040517f08c379a000000000000000000000000000000000000000000000000000000000815260040180806020018281038252603081526020018061068d6030913960400191505060405180910390fd5b61080082511115610329576040517f08c379a00000000000000000000000000000000000000000000000000000000081526004018080602001828103825260128152602001807f496e76616c69642076616c75652073697a65000000000000000000000000000081525060200191505060405180910390fd5b60006033600085815260200190815260200160002060000160009054906101000a900473ffffffffffffffffffffffffffffffffffffffff169050600073ffffffffffffffffffffffffffffffffffffffff168173ffffffffffffffffffffffffffffffffffffffff1614156103c95733905060348490806001815401808255809150509060018203906000526020600020016000909192909190915055505b60405180604001604052808273ffffffffffffffffffffffffffffffffffffffff168152602001438152506033600086815260200190815260200160002060008201518160000160006101000a81548173ffffffffffffffffffffffffffffffffffffffff021916908373ffffffffffffffffffffffffffffffffffffffff160217905550602082015181600101559050506033600085815260200190815260200160002060000160009054906101000a900473ffffffffffffffffffffffffffffffffffffffff1673ffffffffffffffffffffffffffffffffffffffff16847f46d513bf72ee94d266c35268aec30459b2e5cc5418347762561e8f3d3055000e85436040518080602001838152602001828103825284818151815260200191508051906020019080838360005b838110156105125780820151818401526020810190506104f7565b50505050905090810190601f16801561053f5780820380516001836020036101000a031916815260200191505b50935050505060405180910390a360348054905091505092915050565b600060019054906101000a900460ff168061057b575061057a61067b565b5b8061059257506000809054906101000a900460ff16155b6105e7576040517f08c379a000000000000000000000000000000000000000000000000000000000815260040180806020018281038252602e8152602001806106bd602e913960400191505060405180910390fd5b60008060019054906101000a900460ff161590508015610637576001600060016101000a81548160ff02191690831515021790555060016000806101000a81548160ff0219169083151502179055505b80156106585760008060016101000a81548160ff0219169083151502179055505b50565b600060336000838152602001908152602001600020600101549050919050565b600080303b9050600081149150509056fe41747472696275746573206d75737420626520726567697374657265642062792074686520444944206f776e6572732e436f6e747261637420696e7374616e63652068617320616c7265616479206265656e20696e697469616c697a6564a165627a7a723058205847202238792444a6f3d5610a7b4e2fcbeefc65c5d0a1651af2ae7751a5e6970029",
  "source": "pragma solidity 0.5.6;\nimport \"@openzeppelin/upgrades/contracts/Initializable.sol\";\n\n/**\n * @title Dex DIDRegistry Contract\n * @author Ilia Bukalov (ilyabukalov@gmail.com)\n *\n * @dev Implementation of the DIDRegistry.\n * \n */\ncontract DIDRegistry is Initializable {\n\n    struct DIDRegister {\n        address owner;\n        uint256 blockNumberUpdated;\n    }\n\n    mapping(bytes32 => DIDRegister) internal didRegisters;\n    bytes32[] internal didRegisterIds;\n\n    event DIDRegistered(\n        bytes32 indexed _did,\n        address indexed _owner,\n        string _value,\n        uint256 _blockNumberUpdated\n    );\n\n    function initialize()\n        public\n        initializer\n    {\n    }\n\n    function registerDID(\n        bytes32 _did,\n        string memory _value\n    )\n        public\n        returns (uint size)\n    {\n        require(\n            didRegisters[_did].owner == address(0x0) ||\n            didRegisters[_did].owner == msg.sender,\n            'Attributes must be registered by the DID owners.'\n        );\n\n        require(\n            bytes(_value).length <= 2048,\n            'Invalid value size'\n        );\n\n        address didOwner = didRegisters[_did].owner;\n\n        if (didOwner == address(0)) {\n            didOwner = msg.sender;\n            didRegisterIds.push(_did);\n        }\n\n        didRegisters[_did] = DIDRegister({\n            owner: didOwner,\n            blockNumberUpdated: block.number\n        });\n\n        emit DIDRegistered(\n            _did,\n            didRegisters[_did].owner,\n            _value,\n            block.number\n        );\n\n        return didRegisterIds.length;\n    }\n\n    function getBlockNumberUpdated(bytes32 _did)\n        public\n        view\n        returns (uint256 blockNumberUpdated)\n    {\n        return didRegisters[_did].blockNumberUpdated;\n    }\n}\n",
  "sourcePath": "/home/parallels/Ocean/direct-purchase/contracts/DIDRegister.sol",
  "compiler": {
    "name": "solc",
    "version": "0.5.6+commit.b259423e.Emscripten.clang"
  },
  "schemaVersion": "3.0.1",
  "updatedAt": "2020-02-28T04:14:12.226Z",
  "devdoc": {
    "author": "Ilia Bukalov (ilyabukalov@gmail.com)",
    "details": "Implementation of the DIDRegistry.  ",
    "methods": {},
    "title": "Dex DIDRegistry Contract"
  },
  "userdoc": {
    "methods": {}
  }
}