{
  "fileName": "DIDRegister.sol",
  "contractName": "DIDRegistry",
  "source": "pragma solidity ^0.5.0;\nimport '@openzeppelin/upgrades/contracts/Initializable.sol';\n\n/**\n * @title Dex DIDRegistry Contract\n * @author Ilia Bukalov (ilyabukalov@gmail.com)\n *\n * @dev Implementation of the DIDRegistry.\n *\n */\ncontract DIDRegistry is Initializable {\n\n    struct DIDRegister {\n        address owner;\n        uint256 blockNumberUpdated;\n    }\n\n    mapping(bytes32 => DIDRegister) internal didRegisters;\n    bytes32[] internal didRegisterIds;\n\n    event DIDRegistered(\n        bytes32 indexed _did,\n        address indexed _owner,\n        string _value,\n        uint256 _blockNumberUpdated,\n        uint _timestamp\n    );\n\n    function initialize()\n        public\n        initializer\n    {\n    }\n\n    function registerDID(\n        bytes32 _did,\n        string memory _value\n    )\n        public\n        returns (uint size)\n    {\n        require(\n            didRegisters[_did].owner == address(0x0) ||\n            didRegisters[_did].owner == msg.sender,\n            'Attributes must be registered by the DID owners.'\n        );\n\n        require(\n            bytes(_value).length <= 2048,\n            'Invalid value size'\n        );\n\n        address didOwner = didRegisters[_did].owner;\n\n        if (didOwner == address(0)) {\n            didOwner = msg.sender;\n            didRegisterIds.push(_did);\n        }\n\n        didRegisters[_did] = DIDRegister({\n            owner: didOwner,\n            blockNumberUpdated: block.number\n        });\n\n        emit DIDRegistered(\n            _did,\n            didRegisters[_did].owner,\n            _value,\n            block.number,\n\t    now\n        );\n\n        return didRegisterIds.length;\n    }\n\n    function getBlockNumberUpdated(bytes32 _did)\n        public\n        view\n        returns (uint256 blockNumberUpdated)\n    {\n        return didRegisters[_did].blockNumberUpdated;\n    }\n}\n",
  "sourcePath": "contracts/DIDRegister.sol",
  "abi": [
    {
      "anonymous": false,
      "inputs": [
        {
          "indexed": true,
          "internalType": "bytes32",
          "name": "_did",
          "type": "bytes32"
        },
        {
          "indexed": true,
          "internalType": "address",
          "name": "_owner",
          "type": "address"
        },
        {
          "indexed": false,
          "internalType": "string",
          "name": "_value",
          "type": "string"
        },
        {
          "indexed": false,
          "internalType": "uint256",
          "name": "_blockNumberUpdated",
          "type": "uint256"
        },
        {
          "indexed": false,
          "internalType": "uint256",
          "name": "_timestamp",
          "type": "uint256"
        }
      ],
      "name": "DIDRegistered",
      "type": "event"
    },
    {
      "constant": true,
      "inputs": [
        {
          "internalType": "bytes32",
          "name": "_did",
          "type": "bytes32"
        }
      ],
      "name": "getBlockNumberUpdated",
      "outputs": [
        {
          "internalType": "uint256",
          "name": "blockNumberUpdated",
          "type": "uint256"
        }
      ],
      "payable": false,
      "stateMutability": "view",
      "type": "function"
    },
    {
      "constant": false,
      "inputs": [],
      "name": "initialize",
      "outputs": [],
      "payable": false,
      "stateMutability": "nonpayable",
      "type": "function"
    },
    {
      "constant": false,
      "inputs": [
        {
          "internalType": "bytes32",
          "name": "_did",
          "type": "bytes32"
        },
        {
          "internalType": "string",
          "name": "_value",
          "type": "string"
        }
      ],
      "name": "registerDID",
      "outputs": [
        {
          "internalType": "uint256",
          "name": "size",
          "type": "uint256"
        }
      ],
      "payable": false,
      "stateMutability": "nonpayable",
      "type": "function"
    }
  ],
  "bytecode": "0x608060405234801561001057600080fd5b50610710806100206000396000f3fe608060405234801561001057600080fd5b50600436106100415760003560e01c8063331daa99146100465780638129fc1c1461011f578063bbc1dede14610129575b600080fd5b6101096004803603604081101561005c57600080fd5b81019080803590602001909291908035906020019064010000000081111561008357600080fd5b82018360208201111561009557600080fd5b803590602001918460018302840111640100000000831117156100b757600080fd5b91908080601f016020809104026020016040519081016040528093929190818152602001838380828437600081840152601f19601f82011690508083019250505050505050919291929050505061016b565b6040518082815260200191505060405180910390f35b610127610547565b005b6101556004803603602081101561013f57600080fd5b8101908080359060200190929190505050610646565b6040518082815260200191505060405180910390f35b60008073ffffffffffffffffffffffffffffffffffffffff166033600085815260200190815260200160002060000160009054906101000a900473ffffffffffffffffffffffffffffffffffffffff1673ffffffffffffffffffffffffffffffffffffffff16148061023e57503373ffffffffffffffffffffffffffffffffffffffff166033600085815260200190815260200160002060000160009054906101000a900473ffffffffffffffffffffffffffffffffffffffff1673ffffffffffffffffffffffffffffffffffffffff16145b610293576040517f08c379a000000000000000000000000000000000000000000000000000000000815260040180806020018281038252603081526020018061067e6030913960400191505060405180910390fd5b6108008251111561030c576040517f08c379a00000000000000000000000000000000000000000000000000000000081526004018080602001828103825260128152602001807f496e76616c69642076616c75652073697a65000000000000000000000000000081525060200191505060405180910390fd5b60006033600085815260200190815260200160002060000160009054906101000a900473ffffffffffffffffffffffffffffffffffffffff169050600073ffffffffffffffffffffffffffffffffffffffff168173ffffffffffffffffffffffffffffffffffffffff1614156103ac5733905060348490806001815401808255809150509060018203906000526020600020016000909192909190915055505b60405180604001604052808273ffffffffffffffffffffffffffffffffffffffff168152602001438152506033600086815260200190815260200160002060008201518160000160006101000a81548173ffffffffffffffffffffffffffffffffffffffff021916908373ffffffffffffffffffffffffffffffffffffffff160217905550602082015181600101559050506033600085815260200190815260200160002060000160009054906101000a900473ffffffffffffffffffffffffffffffffffffffff1673ffffffffffffffffffffffffffffffffffffffff16847fd249d46c05fa2d9983ee4d99bf117a4072ab968cbd1cd64f6aac599e928282b38543426040518080602001848152602001838152602001828103825285818151815260200191508051906020019080838360005b838110156104fc5780820151818401526020810190506104e1565b50505050905090810190601f1680156105295780820380516001836020036101000a031916815260200191505b5094505050505060405180910390a360348054905091505092915050565b600060019054906101000a900460ff16806105665750610565610666565b5b8061057d57506000809054906101000a900460ff16155b6105d2576040517f08c379a000000000000000000000000000000000000000000000000000000000815260040180806020018281038252602e8152602001806106ae602e913960400191505060405180910390fd5b60008060019054906101000a900460ff161590508015610622576001600060016101000a81548160ff02191690831515021790555060016000806101000a81548160ff0219169083151502179055505b80156106435760008060016101000a81548160ff0219169083151502179055505b50565b600060336000838152602001908152602001600020600101549050919050565b6000803090506000813b905060008114925050509056fe41747472696275746573206d75737420626520726567697374657265642062792074686520444944206f776e6572732e436f6e747261637420696e7374616e63652068617320616c7265616479206265656e20696e697469616c697a6564a265627a7a72315820bca62c8ab1add3084deb500d988d3adb3de865a28f3f26b6135236a58dc2550764736f6c63430005110032",
  "compiler": {
    "name": "solc",
    "version": "0.5.17+commit.d19bba13.Emscripten.clang",
    "optimizer": {
      "enabled": false,
      "runs": 200
    },
    "evmVersion": "petersburg"
  }
}