{
  "fileName": "DirectPurchase.sol",
  "contractName": "DirectPurchase",
  "source": "pragma solidity ^0.5.0;\n// Copyright BigchainDB GmbH and Ocean Protocol contributors\n// SPDX-License-Identifier: (Apache-2.0 AND CC-BY-4.0)\n// Code is Apache-2.0 and docs are CC-BY-4.0\n\nimport '@openzeppelin/contracts-ethereum-package/contracts/token/ERC20/IERC20.sol';\nimport '@openzeppelin/upgrades/contracts/Initializable.sol';\n\n\n/**\n * @title Ocean Protocol DirectPurchase Contract\n * @author Ilia Bukalov (ilyabukalov@gmail.com)\n *\n * @dev Implementation of the DirectPurchase.\n *      IERC20 token is OceanToken.\n */\ncontract DirectPurchase is Initializable {\n\n    IERC20 token;\n\n    event TokenSent(\n\taddress indexed _from,\n\taddress indexed _to,\n\tuint256 _amount,\n        bytes32 _reference1,\n\tbytes32 indexed _reference2\n    );\n\n    /**\n    * @dev DirectPurchase Initializer\n    *      Runs only on initial contract creation.\n    * @param _token refers to the OceanToken address\n    */\n    function initialize(IERC20 _token\n    )\n        public\n        initializer\n    {\n\ttoken = _token;\n    }\n\n    function sendTokenAndLog(address to, uint256 amount, bytes32 reference1, bytes32 reference2) public {\n\ttoken.transferFrom(msg.sender, to, amount);\n        emit TokenSent(msg.sender, to, amount, reference1, reference2);\n    }\n}\n",
  "sourcePath": "contracts/DirectPurchase.sol",
  "abi": [
    {
      "anonymous": false,
      "inputs": [
        {
          "indexed": true,
          "internalType": "address",
          "name": "_from",
          "type": "address"
        },
        {
          "indexed": true,
          "internalType": "address",
          "name": "_to",
          "type": "address"
        },
        {
          "indexed": false,
          "internalType": "uint256",
          "name": "_amount",
          "type": "uint256"
        },
        {
          "indexed": false,
          "internalType": "bytes32",
          "name": "_reference1",
          "type": "bytes32"
        },
        {
          "indexed": true,
          "internalType": "bytes32",
          "name": "_reference2",
          "type": "bytes32"
        }
      ],
      "name": "TokenSent",
      "type": "event"
    },
    {
      "constant": false,
      "inputs": [
        {
          "internalType": "contract IERC20",
          "name": "_token",
          "type": "address"
        }
      ],
      "name": "initialize",
      "outputs": [],
      "payable": false,
      "stateMutability": "nonpayable",
      "type": "function"
    },
    {
      "constant": false,
      "inputs": [
        {
          "internalType": "address",
          "name": "to",
          "type": "address"
        },
        {
          "internalType": "uint256",
          "name": "amount",
          "type": "uint256"
        },
        {
          "internalType": "bytes32",
          "name": "reference1",
          "type": "bytes32"
        },
        {
          "internalType": "bytes32",
          "name": "reference2",
          "type": "bytes32"
        }
      ],
      "name": "sendTokenAndLog",
      "outputs": [],
      "payable": false,
      "stateMutability": "nonpayable",
      "type": "function"
    }
  ],
  "bytecode": "0x608060405234801561001057600080fd5b50610429806100206000396000f3fe608060405234801561001057600080fd5b50600436106100365760003560e01c8063026a0ab21461003b578063c4d66de81461009d575b600080fd5b61009b6004803603608081101561005157600080fd5b81019080803573ffffffffffffffffffffffffffffffffffffffff1690602001909291908035906020019092919080359060200190929190803590602001909291905050506100e1565b005b6100df600480360360208110156100b357600080fd5b81019080803573ffffffffffffffffffffffffffffffffffffffff16906020019092919050505061026e565b005b603360009054906101000a900473ffffffffffffffffffffffffffffffffffffffff1673ffffffffffffffffffffffffffffffffffffffff166323b872dd3386866040518463ffffffff1660e01b8152600401808473ffffffffffffffffffffffffffffffffffffffff1673ffffffffffffffffffffffffffffffffffffffff1681526020018373ffffffffffffffffffffffffffffffffffffffff1673ffffffffffffffffffffffffffffffffffffffff1681526020018281526020019350505050602060405180830381600087803b1580156101be57600080fd5b505af11580156101d2573d6000803e3d6000fd5b505050506040513d60208110156101e857600080fd5b810190808051906020019092919050505050808473ffffffffffffffffffffffffffffffffffffffff163373ffffffffffffffffffffffffffffffffffffffff167f93534e11db56134f1ef4a5ce6e165fdd6d7b546f083c50967d27f870be7199658686604051808381526020018281526020019250505060405180910390a450505050565b600060019054906101000a900460ff168061028d575061028c6103af565b5b806102a457506000809054906101000a900460ff16155b6102f9576040517f08c379a000000000000000000000000000000000000000000000000000000000815260040180806020018281038252602e8152602001806103c7602e913960400191505060405180910390fd5b60008060019054906101000a900460ff161590508015610349576001600060016101000a81548160ff02191690831515021790555060016000806101000a81548160ff0219169083151502179055505b81603360006101000a81548173ffffffffffffffffffffffffffffffffffffffff021916908373ffffffffffffffffffffffffffffffffffffffff16021790555080156103ab5760008060016101000a81548160ff0219169083151502179055505b5050565b6000803090506000813b905060008114925050509056fe436f6e747261637420696e7374616e63652068617320616c7265616479206265656e20696e697469616c697a6564a265627a7a723158205eefe25ba795a4d08ea00ba79ebf2bce45add07e5633b87a42cb715cbab6fb5864736f6c63430005110032",
  "compiler": {
    "name": "solc",
    "version": "0.5.17+commit.d19bba13.Emscripten.clang",
    "optimizer": {
      "enabled": false,
      "runs": 200
    },
    "evmVersion": "petersburg"
  }
}