{
  "contractName": "Provenance",
  "abi": [
    {
      "anonymous": false,
      "inputs": [
        {
          "indexed": true,
          "name": "_assetID",
          "type": "bytes32"
        },
        {
          "indexed": true,
          "name": "_user",
          "type": "address"
        },
        {
          "indexed": false,
          "name": "_timestamp",
          "type": "uint256"
        }
      ],
      "name": "AssetRegistered",
      "type": "event"
    },
    {
      "constant": false,
      "inputs": [],
      "name": "initialize",
      "outputs": [],
      "payable": false,
      "stateMutability": "nonpayable",
      "type": "function"
    },
    {
      "constant": false,
      "inputs": [
        {
          "name": "_assetId",
          "type": "bytes32"
        }
      ],
      "name": "registerAsset",
      "outputs": [],
      "payable": false,
      "stateMutability": "nonpayable",
      "type": "function"
    },
    {
      "constant": true,
      "inputs": [
        {
          "name": "_assetId",
          "type": "bytes32"
        }
      ],
      "name": "getBlockNumber",
      "outputs": [
        {
          "name": "",
          "type": "uint256"
        }
      ],
      "payable": false,
      "stateMutability": "view",
      "type": "function"
    }
  ],
  "bytecode": "0x608060405234801561001057600080fd5b506102d4806100206000396000f3fe608060405234801561001057600080fd5b50600436106100415760003560e01c806347378145146100465780635b01afb5146100885780638129fc1c146100b6575b600080fd5b6100726004803603602081101561005c57600080fd5b81019080803590602001909291905050506100c0565b6040518082815260200191505060405180910390f35b6100b46004803603602081101561009e57600080fd5b81019080803590602001909291905050506100dd565b005b6100be610164565b005b600060336000838152602001908152602001600020549050919050565b600060336000838152602001908152602001600020541415610112574360336000838152602001908152602001600020819055505b3373ffffffffffffffffffffffffffffffffffffffff16817f183dd7ee8d3db71edaccba8d77d2f4ba0c9ca60c557f9fd881798fcf62719d5f426040518082815260200191505060405180910390a350565b600060019054906101000a900460ff16806101835750610182610263565b5b8061019a57506000809054906101000a900460ff16155b6101ef576040517f08c379a000000000000000000000000000000000000000000000000000000000815260040180806020018281038252602e81526020018061027b602e913960400191505060405180910390fd5b60008060019054906101000a900460ff16159050801561023f576001600060016101000a81548160ff02191690831515021790555060016000806101000a81548160ff0219169083151502179055505b80156102605760008060016101000a81548160ff0219169083151502179055505b50565b6000803090506000813b905060008114925050509056fe436f6e747261637420696e7374616e63652068617320616c7265616479206265656e20696e697469616c697a6564a165627a7a72305820ecf96f0db03f3451858a4229616995c2412180be2e6024108631eb2aea23ce030029",
  "source": "pragma solidity 0.5.6;\nimport \"@openzeppelin/upgrades/contracts/Initializable.sol\";\n\n/**\n * @title Dex Provenance Contract\n * @author Ilia Bukalov (ilyabukalov@gmail.com)\n *\n * @dev Implementation of the Provenance.\n * \n */\ncontract Provenance is Initializable {\n\n    mapping(bytes32 => uint256) internal assetIdRegisters;\n\n    event AssetRegistered(\n        bytes32 indexed _assetID,\n        address indexed _user,\n        uint _timestamp\n    );\n\n    function initialize()\n        public\n        initializer\n    {\n    }\n\n    function registerAsset(\n        bytes32 _assetId\n    )\n        public\n    {\n        if(assetIdRegisters[_assetId] == 0) \n\t    assetIdRegisters[_assetId] = block.number;\n\n        emit AssetRegistered(\n            _assetId,\n            msg.sender,\n            now\n        );\n    }\n\n    function getBlockNumber(bytes32 _assetId)\n        public\n        view\n        returns (uint256)\n    {\n        return assetIdRegisters[_assetId];\n    }\n}\n",
  "sourcePath": "/home/bill/Clients/Dex/dex-chain/contracts/Provenance.sol",
  "compiler": {
    "name": "solc",
    "version": "0.5.6+commit.b259423e.Emscripten.clang"
  },
  "schemaVersion": "3.0.11",
  "updatedAt": "2020-06-25T03:21:16.598Z",
  "devdoc": {
    "author": "Ilia Bukalov (ilyabukalov@gmail.com)",
    "details": "Implementation of the Provenance.  ",
    "methods": {},
    "title": "Dex Provenance Contract"
  },
  "userdoc": {
    "methods": {}
  }
}